{
  "contractName": "Escrow_sample",
  "abi": [
    {
      "inputs": [
        {
          "internalType": "address",
          "name": "_buyer",
          "type": "address"
        },
        {
          "internalType": "address payable",
          "name": "_seller",
          "type": "address"
        }
      ],
      "stateMutability": "nonpayable",
      "type": "constructor"
    },
    {
      "inputs": [],
      "name": "buyer",
      "outputs": [
        {
          "internalType": "address",
          "name": "",
          "type": "address"
        }
      ],
      "stateMutability": "view",
      "type": "function"
    },
    {
      "inputs": [],
      "name": "currState",
      "outputs": [
        {
          "internalType": "enum Escrow_sample.State",
          "name": "",
          "type": "uint8"
        }
      ],
      "stateMutability": "view",
      "type": "function"
    },
    {
      "inputs": [],
      "name": "seller",
      "outputs": [
        {
          "internalType": "address payable",
          "name": "",
          "type": "address"
        }
      ],
      "stateMutability": "view",
      "type": "function"
    },
    {
      "inputs": [],
      "name": "deposit",
      "outputs": [],
      "stateMutability": "payable",
      "type": "function"
    },
    {
      "inputs": [],
      "name": "confirmDelivery",
      "outputs": [],
      "stateMutability": "nonpayable",
      "type": "function"
    }
  ],
  "bytecode": "0x608060405234801561001057600080fd5b506040516108773803806108778339818101604052810190610032919061015c565b81600060016101000a81548173ffffffffffffffffffffffffffffffffffffffff021916908373ffffffffffffffffffffffffffffffffffffffff16021790555080600160006101000a81548173ffffffffffffffffffffffffffffffffffffffff021916908373ffffffffffffffffffffffffffffffffffffffff160217905550505061019c565b600080fd5b600073ffffffffffffffffffffffffffffffffffffffff82169050919050565b60006100eb826100c0565b9050919050565b6100fb816100e0565b811461010657600080fd5b50565b600081519050610118816100f2565b92915050565b6000610129826100c0565b9050919050565b6101398161011e565b811461014457600080fd5b50565b60008151905061015681610130565b92915050565b60008060408385031215610173576101726100bb565b5b600061018185828601610109565b925050602061019285828601610147565b9150509250929050565b6106cc806101ab6000396000f3fe60806040526004361061004a5760003560e01c806308551a531461004f5780635e10177b1461007a5780637150d8ae14610091578063afe01043146100bc578063d0e30db0146100e7575b600080fd5b34801561005b57600080fd5b506100646100f1565b6040516100719190610458565b60405180910390f35b34801561008657600080fd5b5061008f610117565b005b34801561009d57600080fd5b506100a66102b0565b6040516100b39190610494565b60405180910390f35b3480156100c857600080fd5b506100d16102d6565b6040516100de9190610526565b60405180910390f35b6100ef6102e7565b005b600160009054906101000a900473ffffffffffffffffffffffffffffffffffffffff1681565b600060019054906101000a900473ffffffffffffffffffffffffffffffffffffffff1673ffffffffffffffffffffffffffffffffffffffff163373ffffffffffffffffffffffffffffffffffffffff16146101a7576040517f08c379a000000000000000000000000000000000000000000000000000000000815260040161019e9061059e565b60405180910390fd5b600160028111156101bb576101ba6104af565b5b60008054906101000a900460ff1660028111156101db576101da6104af565b5b1461021b576040517f08c379a00000000000000000000000000000000000000000000000000000000081526004016102129061060a565b60405180910390fd5b600160009054906101000a900473ffffffffffffffffffffffffffffffffffffffff1673ffffffffffffffffffffffffffffffffffffffff166108fc479081150290604051600060405180830381858888f19350505050158015610283573d6000803e3d6000fd5b5060026000806101000a81548160ff021916908360028111156102a9576102a86104af565b5b0217905550565b600060019054906101000a900473ffffffffffffffffffffffffffffffffffffffff1681565b60008054906101000a900460ff1681565b600060019054906101000a900473ffffffffffffffffffffffffffffffffffffffff1673ffffffffffffffffffffffffffffffffffffffff163373ffffffffffffffffffffffffffffffffffffffff1614610377576040517f08c379a000000000000000000000000000000000000000000000000000000000815260040161036e9061059e565b60405180910390fd5b6000600281111561038b5761038a6104af565b5b60008054906101000a900460ff1660028111156103ab576103aa6104af565b5b146103eb576040517f08c379a00000000000000000000000000000000000000000000000000000000081526004016103e290610676565b60405180910390fd5b60016000806101000a81548160ff021916908360028111156104105761040f6104af565b5b0217905550565b600073ffffffffffffffffffffffffffffffffffffffff82169050919050565b600061044282610417565b9050919050565b61045281610437565b82525050565b600060208201905061046d6000830184610449565b92915050565b600061047e82610417565b9050919050565b61048e81610473565b82525050565b60006020820190506104a96000830184610485565b92915050565b7f4e487b7100000000000000000000000000000000000000000000000000000000600052602160045260246000fd5b600381106104ef576104ee6104af565b5b50565b6000819050610500826104de565b919050565b6000610510826104f2565b9050919050565b61052081610505565b82525050565b600060208201905061053b6000830184610517565b92915050565b600082825260208201905092915050565b7f4f6e6c792062757965722063616e2063616c6c2074686973206d6574686f6400600082015250565b6000610588601f83610541565b915061059382610552565b602082019050919050565b600060208201905081810360008301526105b78161057b565b9050919050565b7f43616e6e6f7420636f6e6669726d2064656c6976657279000000000000000000600082015250565b60006105f4601783610541565b91506105ff826105be565b602082019050919050565b60006020820190508181036000830152610623816105e7565b9050919050565b7f416c726561647920706169640000000000000000000000000000000000000000600082015250565b6000610660600c83610541565b915061066b8261062a565b602082019050919050565b6000602082019050818103600083015261068f81610653565b905091905056fea26469706673582212209e2afbdf580db7324bd990122ac9ae0e0e7ecbda719eb3f42d3b49507294b6a264736f6c634300080a0033",
  "immutableReferences": {},
  "source": "// SPDX-License-Identifier: UNLICENSED\npragma solidity ^0.8.10;\n\ncontract Escrow_sample {\n    enum State { AWAITING_PAYMENT, AWAITING_DELIVERY, COMPLETE }\n    \n    State public currState;\n    \n    address public buyer;\n    address payable public seller;\n    \n    modifier onlyBuyer() {\n        require(msg.sender == buyer, \"Only buyer can call this method\");\n        _;\n    }\n    \n    constructor(address _buyer, address payable _seller) {\n        buyer = _buyer;\n        seller = _seller;\n    }\n    \n    function deposit() onlyBuyer external payable {\n        require(currState == State.AWAITING_PAYMENT, \"Already paid\");\n        currState = State.AWAITING_DELIVERY;\n    }\n    \n    function confirmDelivery() onlyBuyer external {\n        require(currState == State.AWAITING_DELIVERY, \"Cannot confirm delivery\");\n        seller.transfer(address(this).balance);\n        currState = State.COMPLETE;\n    }\n}",
  "sourcePath": "/Users/tamarayustian/src/smart-contract/api/contracts/Escrow_sample.sol",
  "compiler": {
    "name": "solc",
    "version": "0.8.10+commit.fc410830.Emscripten.clang"
  },
  "schemaVersion": "3.4.10",
  "updatedAt": "2022-10-25T11:11:19.014Z",
  "devdoc": {
    "kind": "dev",
    "methods": {},
    "version": 1
  },
  "userdoc": {
    "kind": "user",
    "methods": {},
    "version": 1
  }
}