{
  "contractName": "Escrow_test",
  "abi": [
    {
      "inputs": [],
      "stateMutability": "nonpayable",
      "type": "constructor"
    },
    {
      "anonymous": false,
      "inputs": [
        {
          "indexed": true,
          "internalType": "address",
          "name": "from",
          "type": "address"
        },
        {
          "indexed": true,
          "internalType": "address",
          "name": "",
          "type": "address"
        },
        {
          "indexed": false,
          "internalType": "uint256",
          "name": "value",
          "type": "uint256"
        }
      ],
      "name": "Transfer",
      "type": "event"
    },
    {
      "inputs": [],
      "name": "accName",
      "outputs": [
        {
          "internalType": "address",
          "name": "",
          "type": "address"
        }
      ],
      "stateMutability": "view",
      "type": "function",
      "constant": true
    },
    {
      "inputs": [
        {
          "internalType": "uint256",
          "name": "",
          "type": "uint256"
        }
      ],
      "name": "accounts",
      "outputs": [
        {
          "internalType": "uint256",
          "name": "id",
          "type": "uint256"
        },
        {
          "internalType": "string",
          "name": "name",
          "type": "string"
        },
        {
          "internalType": "uint256",
          "name": "balance",
          "type": "uint256"
        }
      ],
      "stateMutability": "view",
      "type": "function",
      "constant": true
    },
    {
      "inputs": [],
      "name": "balance",
      "outputs": [
        {
          "internalType": "uint256",
          "name": "",
          "type": "uint256"
        }
      ],
      "stateMutability": "view",
      "type": "function",
      "constant": true
    },
    {
      "inputs": [],
      "name": "count",
      "outputs": [
        {
          "internalType": "uint256",
          "name": "",
          "type": "uint256"
        }
      ],
      "stateMutability": "view",
      "type": "function",
      "constant": true
    },
    {
      "inputs": [],
      "name": "gasFee",
      "outputs": [
        {
          "internalType": "uint256",
          "name": "",
          "type": "uint256"
        }
      ],
      "stateMutability": "view",
      "type": "function",
      "constant": true
    },
    {
      "inputs": [
        {
          "internalType": "string",
          "name": "_name",
          "type": "string"
        },
        {
          "internalType": "uint256",
          "name": "_balance",
          "type": "uint256"
        }
      ],
      "name": "createAccount",
      "outputs": [],
      "stateMutability": "nonpayable",
      "type": "function"
    },
    {
      "inputs": [
        {
          "internalType": "address",
          "name": "_name",
          "type": "address"
        }
      ],
      "name": "balanceOf",
      "outputs": [
        {
          "internalType": "uint256",
          "name": "availBalance",
          "type": "uint256"
        }
      ],
      "stateMutability": "view",
      "type": "function",
      "constant": true
    },
    {
      "inputs": [
        {
          "internalType": "address",
          "name": "_from",
          "type": "address"
        },
        {
          "internalType": "address",
          "name": "_to",
          "type": "address"
        },
        {
          "internalType": "uint256",
          "name": "_amount",
          "type": "uint256"
        }
      ],
      "name": "transferTo",
      "outputs": [
        {
          "internalType": "bool",
          "name": "success",
          "type": "bool"
        }
      ],
      "stateMutability": "payable",
      "type": "function",
      "payable": true
    }
  ],
  "bytecode": "0x6080604052600080553480156200001557600080fd5b506200005f6040518060400160405280600e81526020017f54616d617261205975737469616e0000000000000000000000000000000000008152506103e76200006560201b60201c565b62000285565b6000808154809291906200007990620001d2565b919050555060405180606001604052806000548152602001838152602001828152506004600080548152602001908152602001600020600082015181600001556020820151816001019080519060200190620000d7929190620000e9565b50604082015181600201559050505050565b828054620000f7906200024f565b90600052602060002090601f0160209004810192826200011b576000855562000167565b82601f106200013657805160ff191683800117855562000167565b8280016001018555821562000167579182015b828111156200016657825182559160200191906001019062000149565b5b5090506200017691906200017a565b5090565b5b80821115620001955760008160009055506001016200017b565b5090565b7f4e487b7100000000000000000000000000000000000000000000000000000000600052601160045260246000fd5b6000819050919050565b6000620001df82620001c8565b91507fffffffffffffffffffffffffffffffffffffffffffffffffffffffffffffffff82141562000215576200021462000199565b5b600182019050919050565b7f4e487b7100000000000000000000000000000000000000000000000000000000600052602260045260246000fd5b600060028204905060018216806200026857607f821691505b602082108114156200027f576200027e62000220565b5b50919050565b610be180620002956000396000f3fe60806040526004361061007b5760003560e01c8063740aa2ea1161004e578063740aa2ea1461013c578063a5f2a15214610167578063b69ef8a814610197578063f2a40db8146101c25761007b565b806306661abd14610080578063658612e9146100ab5780636586ace6146100d657806370a08231146100ff575b600080fd5b34801561008c57600080fd5b50610095610201565b6040516100a2919061061a565b60405180910390f35b3480156100b757600080fd5b506100c0610207565b6040516100cd919061061a565b60405180910390f35b3480156100e257600080fd5b506100fd60048036038101906100f891906107bb565b61020d565b005b34801561010b57600080fd5b5061012660048036038101906101219190610875565b61028d565b604051610133919061061a565b60405180910390f35b34801561014857600080fd5b506101516102d6565b60405161015e91906108b1565b60405180910390f35b610181600480360381019061017c91906108cc565b6102fc565b60405161018e919061093a565b60405180910390f35b3480156101a357600080fd5b506101ac6104a6565b6040516101b9919061061a565b60405180910390f35b3480156101ce57600080fd5b506101e960048036038101906101e49190610955565b6104ac565b6040516101f893929190610a0a565b60405180910390f35b60005481565b60035481565b60008081548092919061021f90610a77565b91905055506040518060600160405280600054815260200183815260200182815250600460008054815260200190815260200160002060008201518160000155602082015181600101908051906020019061027b92919061055e565b50604082015181600201559050505050565b6000600560008373ffffffffffffffffffffffffffffffffffffffff1673ffffffffffffffffffffffffffffffffffffffff168152602001908152602001600020549050919050565b600160009054906101000a900473ffffffffffffffffffffffffffffffffffffffff1681565b600081600560008673ffffffffffffffffffffffffffffffffffffffff1673ffffffffffffffffffffffffffffffffffffffff1681526020019081526020016000205411801561034c5750600082115b80156103e05750600560008473ffffffffffffffffffffffffffffffffffffffff1673ffffffffffffffffffffffffffffffffffffffff1681526020019081526020016000205482600560008673ffffffffffffffffffffffffffffffffffffffff1673ffffffffffffffffffffffffffffffffffffffff168152602001908152602001600020546103de9190610ac0565b115b1561049a5781600560008673ffffffffffffffffffffffffffffffffffffffff1673ffffffffffffffffffffffffffffffffffffffff16815260200190815260200160002060008282546104349190610b16565b9250508190555081600560008573ffffffffffffffffffffffffffffffffffffffff1673ffffffffffffffffffffffffffffffffffffffff168152602001908152602001600020600082825461048a9190610ac0565b925050819055506001905061049f565b600090505b9392505050565b60025481565b60046020528060005260406000206000915090508060000154908060010180546104d590610b79565b80601f016020809104026020016040519081016040528092919081815260200182805461050190610b79565b801561054e5780601f106105235761010080835404028352916020019161054e565b820191906000526020600020905b81548152906001019060200180831161053157829003601f168201915b5050505050908060020154905083565b82805461056a90610b79565b90600052602060002090601f01602090048101928261058c57600085556105d3565b82601f106105a557805160ff19168380011785556105d3565b828001600101855582156105d3579182015b828111156105d25782518255916020019190600101906105b7565b5b5090506105e091906105e4565b5090565b5b808211156105fd5760008160009055506001016105e5565b5090565b6000819050919050565b61061481610601565b82525050565b600060208201905061062f600083018461060b565b92915050565b6000604051905090565b600080fd5b600080fd5b600080fd5b600080fd5b6000601f19601f8301169050919050565b7f4e487b7100000000000000000000000000000000000000000000000000000000600052604160045260246000fd5b61069c82610653565b810181811067ffffffffffffffff821117156106bb576106ba610664565b5b80604052505050565b60006106ce610635565b90506106da8282610693565b919050565b600067ffffffffffffffff8211156106fa576106f9610664565b5b61070382610653565b9050602081019050919050565b82818337600083830152505050565b600061073261072d846106df565b6106c4565b90508281526020810184848401111561074e5761074d61064e565b5b610759848285610710565b509392505050565b600082601f83011261077657610775610649565b5b813561078684826020860161071f565b91505092915050565b61079881610601565b81146107a357600080fd5b50565b6000813590506107b58161078f565b92915050565b600080604083850312156107d2576107d161063f565b5b600083013567ffffffffffffffff8111156107f0576107ef610644565b5b6107fc85828601610761565b925050602061080d858286016107a6565b9150509250929050565b600073ffffffffffffffffffffffffffffffffffffffff82169050919050565b600061084282610817565b9050919050565b61085281610837565b811461085d57600080fd5b50565b60008135905061086f81610849565b92915050565b60006020828403121561088b5761088a61063f565b5b600061089984828501610860565b91505092915050565b6108ab81610837565b82525050565b60006020820190506108c660008301846108a2565b92915050565b6000806000606084860312156108e5576108e461063f565b5b60006108f386828701610860565b935050602061090486828701610860565b9250506040610915868287016107a6565b9150509250925092565b60008115159050919050565b6109348161091f565b82525050565b600060208201905061094f600083018461092b565b92915050565b60006020828403121561096b5761096a61063f565b5b6000610979848285016107a6565b91505092915050565b600081519050919050565b600082825260208201905092915050565b60005b838110156109bc5780820151818401526020810190506109a1565b838111156109cb576000848401525b50505050565b60006109dc82610982565b6109e6818561098d565b93506109f681856020860161099e565b6109ff81610653565b840191505092915050565b6000606082019050610a1f600083018661060b565b8181036020830152610a3181856109d1565b9050610a40604083018461060b565b949350505050565b7f4e487b7100000000000000000000000000000000000000000000000000000000600052601160045260246000fd5b6000610a8282610601565b91507fffffffffffffffffffffffffffffffffffffffffffffffffffffffffffffffff821415610ab557610ab4610a48565b5b600182019050919050565b6000610acb82610601565b9150610ad683610601565b9250827fffffffffffffffffffffffffffffffffffffffffffffffffffffffffffffffff03821115610b0b57610b0a610a48565b5b828201905092915050565b6000610b2182610601565b9150610b2c83610601565b925082821015610b3f57610b3e610a48565b5b828203905092915050565b7f4e487b7100000000000000000000000000000000000000000000000000000000600052602260045260246000fd5b60006002820490506001821680610b9157607f821691505b60208210811415610ba557610ba4610b4a565b5b5091905056fea2646970667358221220a28ba3c990e9f2cd08bb1a75f88c62d855daa0f670e36d65b8c095eebc8ead2e64736f6c634300080a0033",
  "immutableReferences": {},
  "source": "// SPDX-License-Identifier: UNLICENSED\npragma solidity ^0.8.10;\n\ncontract Escrow_test {\n  uint256 public count = 0;\n  address public accName;\n  uint256 public balance;\n  uint256 public gasFee;\n\n  event Transfer(address indexed from, address indexed, uint256 value);\n\n  struct Account {\n    uint256 id;\n    string name;\n    uint256 balance;\n  }\n\n  mapping(uint => Account) public accounts;\n  mapping(address => uint256) balances;\n\n  constructor() {\n    createAccount('Tamara Yustian', 999);\n  }\n\n  function createAccount(string memory _name, uint256 _balance) public {\n    count++;\n    accounts[count] = Account(count, _name, _balance);\n  }\n\n  function balanceOf(address _name) public view returns (uint256 availBalance) {\n        return balances[_name];\n    }\n\n  function transferTo(address _from, address _to, uint256 _amount) \n  public payable returns (bool success) {\n    if (balances[_from] > _amount && _amount > 0 && balances[_to] + _amount > balances[_to]) {\n      balances[_from] -= _amount;\n      balances[_to] += _amount;\n      return true;\n    } else {\n      return false;\n    }\n  }\n\n}",
  "sourcePath": "/Users/tamarayustian/src/smart-contract/api/contracts/Escrow_test.sol",
  "compiler": {
    "name": "solc",
    "version": "0.8.10+commit.fc410830.Emscripten.clang"
  },
  "schemaVersion": "3.4.10",
  "updatedAt": "2022-11-01T11:06:35.178Z",
  "networkType": "ethereum",
  "devdoc": {
    "kind": "dev",
    "methods": {},
    "version": 1
  },
  "userdoc": {
    "kind": "user",
    "methods": {},
    "version": 1
  }
}