{
  "contractName": "Escrow",
  "abi": [
    {
      "inputs": [
        {
          "internalType": "uint256",
          "name": "_escFee",
          "type": "uint256"
        }
      ],
      "stateMutability": "nonpayable",
      "type": "constructor"
    },
    {
      "anonymous": false,
      "inputs": [
        {
          "indexed": false,
          "internalType": "uint256",
          "name": "itemId",
          "type": "uint256"
        },
        {
          "indexed": false,
          "internalType": "string",
          "name": "actionType",
          "type": "string"
        },
        {
          "indexed": false,
          "internalType": "enum Escrow.Status",
          "name": "status",
          "type": "uint8"
        },
        {
          "indexed": true,
          "internalType": "address",
          "name": "executor",
          "type": "address"
        }
      ],
      "name": "Action",
      "type": "event"
    },
    {
      "inputs": [],
      "name": "escAcc",
      "outputs": [
        {
          "internalType": "address",
          "name": "",
          "type": "address"
        }
      ],
      "stateMutability": "view",
      "type": "function",
      "constant": true
    },
    {
      "inputs": [],
      "name": "escAvailBal",
      "outputs": [
        {
          "internalType": "uint256",
          "name": "",
          "type": "uint256"
        }
      ],
      "stateMutability": "view",
      "type": "function",
      "constant": true
    },
    {
      "inputs": [],
      "name": "escBal",
      "outputs": [
        {
          "internalType": "uint256",
          "name": "",
          "type": "uint256"
        }
      ],
      "stateMutability": "view",
      "type": "function",
      "constant": true
    },
    {
      "inputs": [],
      "name": "escFee",
      "outputs": [
        {
          "internalType": "uint256",
          "name": "",
          "type": "uint256"
        }
      ],
      "stateMutability": "view",
      "type": "function",
      "constant": true
    },
    {
      "inputs": [
        {
          "internalType": "uint256",
          "name": "",
          "type": "uint256"
        }
      ],
      "name": "isAvailable",
      "outputs": [
        {
          "internalType": "enum Escrow.Available",
          "name": "",
          "type": "uint8"
        }
      ],
      "stateMutability": "view",
      "type": "function",
      "constant": true
    },
    {
      "inputs": [
        {
          "internalType": "uint256",
          "name": "",
          "type": "uint256"
        }
      ],
      "name": "ownerOf",
      "outputs": [
        {
          "internalType": "address",
          "name": "",
          "type": "address"
        }
      ],
      "stateMutability": "view",
      "type": "function",
      "constant": true
    },
    {
      "inputs": [
        {
          "internalType": "address",
          "name": "",
          "type": "address"
        },
        {
          "internalType": "uint256",
          "name": "",
          "type": "uint256"
        }
      ],
      "name": "requested",
      "outputs": [
        {
          "internalType": "bool",
          "name": "",
          "type": "bool"
        }
      ],
      "stateMutability": "view",
      "type": "function",
      "constant": true
    },
    {
      "inputs": [],
      "name": "totalConfirmed",
      "outputs": [
        {
          "internalType": "uint256",
          "name": "",
          "type": "uint256"
        }
      ],
      "stateMutability": "view",
      "type": "function",
      "constant": true
    },
    {
      "inputs": [],
      "name": "totalDisputed",
      "outputs": [
        {
          "internalType": "uint256",
          "name": "",
          "type": "uint256"
        }
      ],
      "stateMutability": "view",
      "type": "function",
      "constant": true
    },
    {
      "inputs": [],
      "name": "totalItems",
      "outputs": [
        {
          "internalType": "uint256",
          "name": "",
          "type": "uint256"
        }
      ],
      "stateMutability": "view",
      "type": "function",
      "constant": true
    },
    {
      "inputs": [
        {
          "internalType": "string",
          "name": "purpose",
          "type": "string"
        }
      ],
      "name": "createItem",
      "outputs": [
        {
          "internalType": "bool",
          "name": "",
          "type": "bool"
        }
      ],
      "stateMutability": "payable",
      "type": "function",
      "payable": true
    },
    {
      "inputs": [],
      "name": "getItems",
      "outputs": [
        {
          "components": [
            {
              "internalType": "uint256",
              "name": "itemId",
              "type": "uint256"
            },
            {
              "internalType": "string",
              "name": "purpose",
              "type": "string"
            },
            {
              "internalType": "uint256",
              "name": "amount",
              "type": "uint256"
            },
            {
              "internalType": "uint256",
              "name": "timestamp",
              "type": "uint256"
            },
            {
              "internalType": "address",
              "name": "owner",
              "type": "address"
            },
            {
              "internalType": "address",
              "name": "provider",
              "type": "address"
            },
            {
              "internalType": "enum Escrow.Status",
              "name": "status",
              "type": "uint8"
            },
            {
              "internalType": "bool",
              "name": "provided",
              "type": "bool"
            },
            {
              "internalType": "bool",
              "name": "confirmed",
              "type": "bool"
            }
          ],
          "internalType": "struct Escrow.ItemStruct[]",
          "name": "props",
          "type": "tuple[]"
        }
      ],
      "stateMutability": "view",
      "type": "function",
      "constant": true
    },
    {
      "inputs": [
        {
          "internalType": "uint256",
          "name": "itemId",
          "type": "uint256"
        }
      ],
      "name": "getItem",
      "outputs": [
        {
          "components": [
            {
              "internalType": "uint256",
              "name": "itemId",
              "type": "uint256"
            },
            {
              "internalType": "string",
              "name": "purpose",
              "type": "string"
            },
            {
              "internalType": "uint256",
              "name": "amount",
              "type": "uint256"
            },
            {
              "internalType": "uint256",
              "name": "timestamp",
              "type": "uint256"
            },
            {
              "internalType": "address",
              "name": "owner",
              "type": "address"
            },
            {
              "internalType": "address",
              "name": "provider",
              "type": "address"
            },
            {
              "internalType": "enum Escrow.Status",
              "name": "status",
              "type": "uint8"
            },
            {
              "internalType": "bool",
              "name": "provided",
              "type": "bool"
            },
            {
              "internalType": "bool",
              "name": "confirmed",
              "type": "bool"
            }
          ],
          "internalType": "struct Escrow.ItemStruct",
          "name": "",
          "type": "tuple"
        }
      ],
      "stateMutability": "view",
      "type": "function",
      "constant": true
    },
    {
      "inputs": [],
      "name": "myItems",
      "outputs": [
        {
          "components": [
            {
              "internalType": "uint256",
              "name": "itemId",
              "type": "uint256"
            },
            {
              "internalType": "string",
              "name": "purpose",
              "type": "string"
            },
            {
              "internalType": "uint256",
              "name": "amount",
              "type": "uint256"
            },
            {
              "internalType": "uint256",
              "name": "timestamp",
              "type": "uint256"
            },
            {
              "internalType": "address",
              "name": "owner",
              "type": "address"
            },
            {
              "internalType": "address",
              "name": "provider",
              "type": "address"
            },
            {
              "internalType": "enum Escrow.Status",
              "name": "status",
              "type": "uint8"
            },
            {
              "internalType": "bool",
              "name": "provided",
              "type": "bool"
            },
            {
              "internalType": "bool",
              "name": "confirmed",
              "type": "bool"
            }
          ],
          "internalType": "struct Escrow.ItemStruct[]",
          "name": "",
          "type": "tuple[]"
        }
      ],
      "stateMutability": "view",
      "type": "function",
      "constant": true
    },
    {
      "inputs": [
        {
          "internalType": "uint256",
          "name": "itemId",
          "type": "uint256"
        }
      ],
      "name": "requestItem",
      "outputs": [
        {
          "internalType": "bool",
          "name": "",
          "type": "bool"
        }
      ],
      "stateMutability": "nonpayable",
      "type": "function"
    },
    {
      "inputs": [
        {
          "internalType": "uint256",
          "name": "itemId",
          "type": "uint256"
        },
        {
          "internalType": "address",
          "name": "provider",
          "type": "address"
        }
      ],
      "name": "approveRequest",
      "outputs": [
        {
          "internalType": "bool",
          "name": "",
          "type": "bool"
        }
      ],
      "stateMutability": "nonpayable",
      "type": "function"
    },
    {
      "inputs": [
        {
          "internalType": "uint256",
          "name": "itemId",
          "type": "uint256"
        }
      ],
      "name": "performDelievery",
      "outputs": [
        {
          "internalType": "bool",
          "name": "",
          "type": "bool"
        }
      ],
      "stateMutability": "nonpayable",
      "type": "function"
    },
    {
      "inputs": [
        {
          "internalType": "uint256",
          "name": "itemId",
          "type": "uint256"
        },
        {
          "internalType": "bool",
          "name": "provided",
          "type": "bool"
        }
      ],
      "name": "confirmDelivery",
      "outputs": [
        {
          "internalType": "bool",
          "name": "",
          "type": "bool"
        }
      ],
      "stateMutability": "nonpayable",
      "type": "function"
    },
    {
      "inputs": [
        {
          "internalType": "uint256",
          "name": "itemId",
          "type": "uint256"
        }
      ],
      "name": "refundItem",
      "outputs": [
        {
          "internalType": "bool",
          "name": "",
          "type": "bool"
        }
      ],
      "stateMutability": "nonpayable",
      "type": "function"
    },
    {
      "inputs": [
        {
          "internalType": "address",
          "name": "to",
          "type": "address"
        },
        {
          "internalType": "uint256",
          "name": "amount",
          "type": "uint256"
        }
      ],
      "name": "withdrawFund",
      "outputs": [
        {
          "internalType": "bool",
          "name": "",
          "type": "bool"
        }
      ],
      "stateMutability": "nonpayable",
      "type": "function"
    }
  ],
  "bytecode": "0x60806040526000600455600060055560006006553480156200002057600080fd5b5060405162003743380380620037438339818101604052810190620000469190620000e4565b336000806101000a81548173ffffffffffffffffffffffffffffffffffffffff021916908373ffffffffffffffffffffffffffffffffffffffff16021790555060006001819055506000600281905550806003819055505062000116565b600080fd5b6000819050919050565b620000be81620000a9565b8114620000ca57600080fd5b50565b600081519050620000de81620000b3565b92915050565b600060208284031215620000fd57620000fc620000a4565b5b60006200010d84828501620000cd565b91505092915050565b61361d80620001266000396000f3fe60806040526004361061011f5760003560e01c806350f18cb7116100a0578063bc045df811610064578063bc045df81461042c578063c86d9da214610469578063c9958c4d14610494578063d62a4887146104bf578063f7c8d221146104fc5761011f565b806350f18cb71461031f578063618f0ea71461034a5780636352211e146103755780636754cc28146103b25780637216f123146103ef5761011f565b80633a178d99116100e75780633a178d99146102315780633d54eebb1461026e5780634028a0f11461029e578063410d59cc146102c95780634e47368b146102f45761011f565b806304ef07811461012457806310dd7a4c1461016157806318059aad1461018c5780632799276d146101c95780633129e773146101f4575b600080fd5b34801561013057600080fd5b5061014b60048036038101906101469190612295565b610539565b60405161015891906122e4565b60405180910390f35b34801561016d57600080fd5b506101766108d5565b60405161018391906125f5565b60405180910390f35b34801561019857600080fd5b506101b360048036038101906101ae9190612617565b610b3f565b6040516101c091906122e4565b60405180910390f35b3480156101d557600080fd5b506101de610d6b565b6040516101eb9190612653565b60405180910390f35b34801561020057600080fd5b5061021b60048036038101906102169190612617565b610d71565b6040516102289190612733565b60405180910390f35b34801561023d57600080fd5b5061025860048036038101906102539190612617565b610f6c565b604051610265919061279d565b60405180910390f35b6102886004803603810190610283919061281d565b610f8c565b60405161029591906122e4565b60405180910390f35b3480156102aa57600080fd5b506102b36113f9565b6040516102c09190612653565b60405180910390f35b3480156102d557600080fd5b506102de6113ff565b6040516102eb91906125f5565b60405180910390f35b34801561030057600080fd5b50610309611687565b6040516103169190612653565b60405180910390f35b34801561032b57600080fd5b5061033461168d565b6040516103419190612653565b60405180910390f35b34801561035657600080fd5b5061035f611693565b60405161036c9190612879565b60405180910390f35b34801561038157600080fd5b5061039c60048036038101906103979190612617565b6116b7565b6040516103a99190612879565b60405180910390f35b3480156103be57600080fd5b506103d960048036038101906103d491906128c0565b6116ea565b6040516103e691906122e4565b60405180910390f35b3480156103fb57600080fd5b5061041660048036038101906104119190612617565b611719565b60405161042391906122e4565b60405180910390f35b34801561043857600080fd5b50610453600480360381019061044e9190612900565b61194f565b60405161046091906122e4565b60405180910390f35b34801561047557600080fd5b5061047e611c4d565b60405161048b9190612653565b60405180910390f35b3480156104a057600080fd5b506104a9611c53565b6040516104b69190612653565b60405180910390f35b3480156104cb57600080fd5b506104e660048036038101906104e19190612617565b611c59565b6040516104f391906122e4565b60405180910390f35b34801561050857600080fd5b50610523600480360381019061051e91906128c0565b611e46565b60405161053091906122e4565b60405180910390f35b6000600a600084815260200190815260200160002060009054906101000a900473ffffffffffffffffffffffffffffffffffffffff1673ffffffffffffffffffffffffffffffffffffffff163373ffffffffffffffffffffffffffffffffffffffff16146105dc576040517f08c379a00000000000000000000000000000000000000000000000000000000081526004016105d39061299d565b60405180910390fd5b6007600084815260200190815260200160002060050160159054906101000a900460ff1661063f576040517f08c379a000000000000000000000000000000000000000000000000000000000815260040161063690612a09565b60405180910390fd5b6005600681111561065357610652612414565b5b6007600085815260200190815260200160002060050160149054906101000a900460ff16600681111561068957610688612414565b5b14156106ca576040517f08c379a00000000000000000000000000000000000000000000000000000000081526004016106c190612a9b565b60405180910390fd5b811561083a576000606460035460076000878152602001908152602001600020600201546106f89190612aea565b6107029190612b73565b90506107656007600086815260200190815260200160002060050160009054906101000a900473ffffffffffffffffffffffffffffffffffffffff168260076000888152602001908152602001600020600201546107609190612ba4565b611fa7565b5060076000858152602001908152602001600020600201546001600082825461078e9190612ba4565b9250508190555080600260008282546107a79190612bd8565b9250508190555060016007600086815260200190815260200160002060050160166101000a81548160ff02191690831515021790555060036007600086815260200190815260200160002060050160146101000a81548160ff0219169083600681111561081757610816612414565b5b02179055506005600081548092919061082f90612c2e565b91905055505061087a565b60046007600085815260200190815260200160002060050160146101000a81548160ff0219169083600681111561087457610873612414565b5b02179055505b3373ffffffffffffffffffffffffffffffffffffffff167f23ad0062ad47da0f27f5c07751751e4b60afc16bf6fe03a24266a01ec48979318460046040516108c3929190612cd2565b60405180910390a26001905092915050565b6060600860003373ffffffffffffffffffffffffffffffffffffffff1673ffffffffffffffffffffffffffffffffffffffff168152602001908152602001600020805480602002602001604051908101604052809291908181526020016000905b82821015610b365783829060005260206000209060060201604051806101200160405290816000820154815260200160018201805461097490612d3d565b80601f01602080910402602001604051908101604052809291908181526020018280546109a090612d3d565b80156109ed5780601f106109c2576101008083540402835291602001916109ed565b820191906000526020600020905b8154815290600101906020018083116109d057829003601f168201915b5050505050815260200160028201548152602001600382015481526020016004820160009054906101000a900473ffffffffffffffffffffffffffffffffffffffff1673ffffffffffffffffffffffffffffffffffffffff1673ffffffffffffffffffffffffffffffffffffffff1681526020016005820160009054906101000a900473ffffffffffffffffffffffffffffffffffffffff1673ffffffffffffffffffffffffffffffffffffffff1673ffffffffffffffffffffffffffffffffffffffff1681526020016005820160149054906101000a900460ff166006811115610adb57610ada612414565b5b6006811115610aed57610aec612414565b5b81526020016005820160159054906101000a900460ff161515151581526020016005820160169054906101000a900460ff16151515158152505081526020019060010190610936565b50505050905090565b60008060009054906101000a900473ffffffffffffffffffffffffffffffffffffffff1673ffffffffffffffffffffffffffffffffffffffff163373ffffffffffffffffffffffffffffffffffffffff1614610bd0576040517f08c379a0000000000000000000000000000000000000000000000000000000008152600401610bc790612dbb565b60405180910390fd5b6007600083815260200190815260200160002060050160169054906101000a900460ff1615610c34576040517f08c379a0000000000000000000000000000000000000000000000000000000008152600401610c2b90612e27565b60405180910390fd5b610c8a6007600084815260200190815260200160002060040160009054906101000a900473ffffffffffffffffffffffffffffffffffffffff166007600085815260200190815260200160002060020154611fa7565b50600760008381526020019081526020016000206002015460016000828254610cb39190612ba4565b9250508190555060056007600084815260200190815260200160002060050160146101000a81548160ff02191690836006811115610cf457610cf3612414565b5b021790555060066000815480929190610d0c90612c2e565b91905055503373ffffffffffffffffffffffffffffffffffffffff167f23ad0062ad47da0f27f5c07751751e4b60afc16bf6fe03a24266a01ec4897931836005604051610d5a929190612e93565b60405180910390a260019050919050565b60045481565b610d7961205f565b600760008381526020019081526020016000206040518061012001604052908160008201548152602001600182018054610db290612d3d565b80601f0160208091040260200160405190810160405280929190818152602001828054610dde90612d3d565b8015610e2b5780601f10610e0057610100808354040283529160200191610e2b565b820191906000526020600020905b815481529060010190602001808311610e0e57829003601f168201915b5050505050815260200160028201548152602001600382015481526020016004820160009054906101000a900473ffffffffffffffffffffffffffffffffffffffff1673ffffffffffffffffffffffffffffffffffffffff1673ffffffffffffffffffffffffffffffffffffffff1681526020016005820160009054906101000a900473ffffffffffffffffffffffffffffffffffffffff1673ffffffffffffffffffffffffffffffffffffffff1673ffffffffffffffffffffffffffffffffffffffff1681526020016005820160149054906101000a900460ff166006811115610f1957610f18612414565b5b6006811115610f2b57610f2a612414565b5b81526020016005820160159054906101000a900460ff161515151581526020016005820160169054906101000a900460ff1615151515815250509050919050565b600b6020528060005260406000206000915054906101000a900460ff1681565b6000808383905011610fd3576040517f08c379a0000000000000000000000000000000000000000000000000000000008152600401610fca90612f1b565b60405180910390fd5b60003411611016576040517f08c379a000000000000000000000000000000000000000000000000000000000815260040161100d90612f87565b60405180910390fd5b60006004600081548092919061102b90612c2e565b919050559050600060076000838152602001908152602001600020905081816000018190555084848260010191906110649291906120ed565b50348160020181905550428160030181905550338160040160006101000a81548173ffffffffffffffffffffffffffffffffffffffff021916908373ffffffffffffffffffffffffffffffffffffffff16021790555060008160050160146101000a81548160ff021916908360068111156110e2576110e1612414565b5b0217905550600860003373ffffffffffffffffffffffffffffffffffffffff1673ffffffffffffffffffffffffffffffffffffffff16815260200190815260200160002081908060018154018082558091505060019003906000526020600020906006020160009091909190915060008201548160000155600182018160010190805461116e90612d3d565b611179929190612173565b5060028201548160020155600382015481600301556004820160009054906101000a900473ffffffffffffffffffffffffffffffffffffffff168160040160006101000a81548173ffffffffffffffffffffffffffffffffffffffff021916908373ffffffffffffffffffffffffffffffffffffffff1602179055506005820160009054906101000a900473ffffffffffffffffffffffffffffffffffffffff168160050160006101000a81548173ffffffffffffffffffffffffffffffffffffffff021916908373ffffffffffffffffffffffffffffffffffffffff1602179055506005820160149054906101000a900460ff168160050160146101000a81548160ff0219169083600681111561129457611293612414565b5b02179055506005820160159054906101000a900460ff168160050160156101000a81548160ff0219169083151502179055506005820160169054906101000a900460ff168160050160166101000a81548160ff021916908315150217905550505033600a600084815260200190815260200160002060006101000a81548173ffffffffffffffffffffffffffffffffffffffff021916908373ffffffffffffffffffffffffffffffffffffffff1602179055506001600b600084815260200190815260200160002060006101000a81548160ff0219169083600181111561137e5761137d612414565b5b021790555034600160008282546113959190612bd8565b925050819055503373ffffffffffffffffffffffffffffffffffffffff167f23ad0062ad47da0f27f5c07751751e4b60afc16bf6fe03a24266a01ec48979318360006040516113e5929190612ff3565b60405180910390a260019250505092915050565b60055481565b606060045467ffffffffffffffff81111561141d5761141c61302f565b5b60405190808252806020026020018201604052801561145657816020015b61144361205f565b81526020019060019003908161143b5790505b50905060005b6004548110156116835760076000828152602001908152602001600020604051806101200160405290816000820154815260200160018201805461149f90612d3d565b80601f01602080910402602001604051908101604052809291908181526020018280546114cb90612d3d565b80156115185780601f106114ed57610100808354040283529160200191611518565b820191906000526020600020905b8154815290600101906020018083116114fb57829003601f168201915b5050505050815260200160028201548152602001600382015481526020016004820160009054906101000a900473ffffffffffffffffffffffffffffffffffffffff1673ffffffffffffffffffffffffffffffffffffffff1673ffffffffffffffffffffffffffffffffffffffff1681526020016005820160009054906101000a900473ffffffffffffffffffffffffffffffffffffffff1673ffffffffffffffffffffffffffffffffffffffff1673ffffffffffffffffffffffffffffffffffffffff1681526020016005820160149054906101000a900460ff16600681111561160657611605612414565b5b600681111561161857611617612414565b5b81526020016005820160159054906101000a900460ff161515151581526020016005820160169054906101000a900460ff1615151515815250508282815181106116655761166461305e565b5b6020026020010181905250808061167b90612c2e565b91505061145c565b5090565b60035481565b60025481565b60008054906101000a900473ffffffffffffffffffffffffffffffffffffffff1681565b600a6020528060005260406000206000915054906101000a900473ffffffffffffffffffffffffffffffffffffffff1681565b60096020528160005260406000206020528060005260406000206000915091509054906101000a900460ff1681565b60006007600083815260200190815260200160002060050160009054906101000a900473ffffffffffffffffffffffffffffffffffffffff1673ffffffffffffffffffffffffffffffffffffffff163373ffffffffffffffffffffffffffffffffffffffff16146117bf576040517f08c379a00000000000000000000000000000000000000000000000000000000081526004016117b6906130d9565b60405180910390fd5b6007600083815260200190815260200160002060050160159054906101000a900460ff1615611823576040517f08c379a000000000000000000000000000000000000000000000000000000000815260040161181a90612e27565b60405180910390fd5b6007600083815260200190815260200160002060050160169054906101000a900460ff1615611887576040517f08c379a000000000000000000000000000000000000000000000000000000000815260040161187e90613145565b60405180910390fd5b60016007600084815260200190815260200160002060050160156101000a81548160ff02191690831515021790555060026007600084815260200190815260200160002060050160146101000a81548160ff021916908360068111156118f0576118ef612414565b5b02179055503373ffffffffffffffffffffffffffffffffffffffff167f23ad0062ad47da0f27f5c07751751e4b60afc16bf6fe03a24266a01ec489793183600260405161193e9291906131b1565b60405180910390a260019050919050565b6000600a600084815260200190815260200160002060009054906101000a900473ffffffffffffffffffffffffffffffffffffffff1673ffffffffffffffffffffffffffffffffffffffff163373ffffffffffffffffffffffffffffffffffffffff16146119f2576040517f08c379a00000000000000000000000000000000000000000000000000000000081526004016119e99061299d565b60405180910390fd5b600180811115611a0557611a04612414565b5b600b600085815260200190815260200160002060009054906101000a900460ff166001811115611a3857611a37612414565b5b14611a78576040517f08c379a0000000000000000000000000000000000000000000000000000000008152600401611a6f90613239565b60405180910390fd5b600960008373ffffffffffffffffffffffffffffffffffffffff1673ffffffffffffffffffffffffffffffffffffffff168152602001908152602001600020600084815260200190815260200160002060009054906101000a900460ff16611b15576040517f08c379a0000000000000000000000000000000000000000000000000000000008152600401611b0c906132a5565b60405180910390fd5b60006001811115611b2957611b28612414565b5b600b600085815260200190815260200160002060009054906101000a900460ff166001811115611b5c57611b5b612414565b5b505060016007600085815260200190815260200160002060050160146101000a81548160ff02191690836006811115611b9857611b97612414565b5b0217905550816007600085815260200190815260200160002060050160006101000a81548173ffffffffffffffffffffffffffffffffffffffff021916908373ffffffffffffffffffffffffffffffffffffffff1602179055503373ffffffffffffffffffffffffffffffffffffffff167f23ad0062ad47da0f27f5c07751751e4b60afc16bf6fe03a24266a01ec4897931846001604051611c3b929190613311565b60405180910390a26001905092915050565b60015481565b60065481565b6000600a600083815260200190815260200160002060009054906101000a900473ffffffffffffffffffffffffffffffffffffffff1673ffffffffffffffffffffffffffffffffffffffff163373ffffffffffffffffffffffffffffffffffffffff161415611cfd576040517f08c379a0000000000000000000000000000000000000000000000000000000008152600401611cf490613399565b60405180910390fd5b600180811115611d1057611d0f612414565b5b600b600084815260200190815260200160002060009054906101000a900460ff166001811115611d4357611d42612414565b5b14611d83576040517f08c379a0000000000000000000000000000000000000000000000000000000008152600401611d7a90613239565b60405180910390fd5b6001600960003373ffffffffffffffffffffffffffffffffffffffff1673ffffffffffffffffffffffffffffffffffffffff168152602001908152602001600020600084815260200190815260200160002060006101000a81548160ff0219169083151502179055503373ffffffffffffffffffffffffffffffffffffffff167f23ad0062ad47da0f27f5c07751751e4b60afc16bf6fe03a24266a01ec4897931836000604051611e35929190613405565b60405180910390a260019050919050565b60008060009054906101000a900473ffffffffffffffffffffffffffffffffffffffff1673ffffffffffffffffffffffffffffffffffffffff163373ffffffffffffffffffffffffffffffffffffffff1614611ed7576040517f08c379a0000000000000000000000000000000000000000000000000000000008152600401611ece90612dbb565b60405180910390fd5b600082118015611ee957506002548211155b611f28576040517f08c379a0000000000000000000000000000000000000000000000000000000008152600401611f1f9061348d565b60405180910390fd5b611f328383611fa7565b508160026000828254611f459190612ba4565b925050819055503373ffffffffffffffffffffffffffffffffffffffff167f23ad0062ad47da0f27f5c07751751e4b60afc16bf6fe03a24266a01ec4897931426006604051611f959291906134f9565b60405180910390a26001905092915050565b6000808373ffffffffffffffffffffffffffffffffffffffff1683604051611fce90613566565b60006040518083038185875af1925050503d806000811461200b576040519150601f19603f3d011682016040523d82523d6000602084013e612010565b606091505b5050905080612054576040517f08c379a000000000000000000000000000000000000000000000000000000000815260040161204b906135c7565b60405180910390fd5b600191505092915050565b60405180610120016040528060008152602001606081526020016000815260200160008152602001600073ffffffffffffffffffffffffffffffffffffffff168152602001600073ffffffffffffffffffffffffffffffffffffffff168152602001600060068111156120d5576120d4612414565b5b81526020016000151581526020016000151581525090565b8280546120f990612d3d565b90600052602060002090601f01602090048101928261211b5760008555612162565b82601f1061213457803560ff1916838001178555612162565b82800160010185558215612162579182015b82811115612161578235825591602001919060010190612146565b5b50905061216f9190612200565b5090565b82805461217f90612d3d565b90600052602060002090601f0160209004810192826121a157600085556121ef565b82601f106121b257805485556121ef565b828001600101855582156121ef57600052602060002091601f016020900482015b828111156121ee5782548255916001019190600101906121d3565b5b5090506121fc9190612200565b5090565b5b80821115612219576000816000905550600101612201565b5090565b600080fd5b600080fd5b6000819050919050565b61223a81612227565b811461224557600080fd5b50565b60008135905061225781612231565b92915050565b60008115159050919050565b6122728161225d565b811461227d57600080fd5b50565b60008135905061228f81612269565b92915050565b600080604083850312156122ac576122ab61221d565b5b60006122ba85828601612248565b92505060206122cb85828601612280565b9150509250929050565b6122de8161225d565b82525050565b60006020820190506122f960008301846122d5565b92915050565b600081519050919050565b600082825260208201905092915050565b6000819050602082019050919050565b61233481612227565b82525050565b600081519050919050565b600082825260208201905092915050565b60005b83811015612374578082015181840152602081019050612359565b83811115612383576000848401525b50505050565b6000601f19601f8301169050919050565b60006123a58261233a565b6123af8185612345565b93506123bf818560208601612356565b6123c881612389565b840191505092915050565b600073ffffffffffffffffffffffffffffffffffffffff82169050919050565b60006123fe826123d3565b9050919050565b61240e816123f3565b82525050565b7f4e487b7100000000000000000000000000000000000000000000000000000000600052602160045260246000fd5b6007811061245457612453612414565b5b50565b600081905061246582612443565b919050565b600061247582612457565b9050919050565b6124858161246a565b82525050565b6124948161225d565b82525050565b6000610120830160008301516124b3600086018261232b565b50602083015184820360208601526124cb828261239a565b91505060408301516124e0604086018261232b565b5060608301516124f3606086018261232b565b5060808301516125066080860182612405565b5060a083015161251960a0860182612405565b5060c083015161252c60c086018261247c565b5060e083015161253f60e086018261248b565b5061010083015161255461010086018261248b565b508091505092915050565b600061256b838361249a565b905092915050565b6000602082019050919050565b600061258b826122ff565b612595818561230a565b9350836020820285016125a78561231b565b8060005b858110156125e357848403895281516125c4858261255f565b94506125cf83612573565b925060208a019950506001810190506125ab565b50829750879550505050505092915050565b6000602082019050818103600083015261260f8184612580565b905092915050565b60006020828403121561262d5761262c61221d565b5b600061263b84828501612248565b91505092915050565b61264d81612227565b82525050565b60006020820190506126686000830184612644565b92915050565b600061012083016000830151612687600086018261232b565b506020830151848203602086015261269f828261239a565b91505060408301516126b4604086018261232b565b5060608301516126c7606086018261232b565b5060808301516126da6080860182612405565b5060a08301516126ed60a0860182612405565b5060c083015161270060c086018261247c565b5060e083015161271360e086018261248b565b5061010083015161272861010086018261248b565b508091505092915050565b6000602082019050818103600083015261274d818461266e565b905092915050565b6002811061276657612765612414565b5b50565b600081905061277782612755565b919050565b600061278782612769565b9050919050565b6127978161277c565b82525050565b60006020820190506127b2600083018461278e565b92915050565b600080fd5b600080fd5b600080fd5b60008083601f8401126127dd576127dc6127b8565b5b8235905067ffffffffffffffff8111156127fa576127f96127bd565b5b602083019150836001820283011115612816576128156127c2565b5b9250929050565b600080602083850312156128345761283361221d565b5b600083013567ffffffffffffffff81111561285257612851612222565b5b61285e858286016127c7565b92509250509250929050565b612873816123f3565b82525050565b600060208201905061288e600083018461286a565b92915050565b61289d816123f3565b81146128a857600080fd5b50565b6000813590506128ba81612894565b92915050565b600080604083850312156128d7576128d661221d565b5b60006128e5858286016128ab565b92505060206128f685828601612248565b9150509250929050565b600080604083850312156129175761291661221d565b5b600061292585828601612248565b9250506020612936858286016128ab565b9150509250929050565b600082825260208201905092915050565b7f4f6e6c79206f776e657220616c6c6f7765640000000000000000000000000000600082015250565b6000612987601283612940565b915061299282612951565b602082019050919050565b600060208201905081810360008301526129b68161297a565b9050919050565b7f53657276696365206e6f742070726f7669646564000000000000000000000000600082015250565b60006129f3601483612940565b91506129fe826129bd565b602082019050919050565b60006020820190508181036000830152612a22816129e6565b9050919050565b7f416c726561647920726566756e6465642c206372656174652061206e6577204960008201527f74656d0000000000000000000000000000000000000000000000000000000000602082015250565b6000612a85602383612940565b9150612a9082612a29565b604082019050919050565b60006020820190508181036000830152612ab481612a78565b9050919050565b7f4e487b7100000000000000000000000000000000000000000000000000000000600052601160045260246000fd5b6000612af582612227565b9150612b0083612227565b9250817fffffffffffffffffffffffffffffffffffffffffffffffffffffffffffffffff0483118215151615612b3957612b38612abb565b5b828202905092915050565b7f4e487b7100000000000000000000000000000000000000000000000000000000600052601260045260246000fd5b6000612b7e82612227565b9150612b8983612227565b925082612b9957612b98612b44565b5b828204905092915050565b6000612baf82612227565b9150612bba83612227565b925082821015612bcd57612bcc612abb565b5b828203905092915050565b6000612be382612227565b9150612bee83612227565b9250827fffffffffffffffffffffffffffffffffffffffffffffffffffffffffffffffff03821115612c2357612c22612abb565b5b828201905092915050565b6000612c3982612227565b91507fffffffffffffffffffffffffffffffffffffffffffffffffffffffffffffffff821415612c6c57612c6b612abb565b5b600182019050919050565b7f4449535055545445440000000000000000000000000000000000000000000000600082015250565b6000612cad600983612940565b9150612cb882612c77565b602082019050919050565b612ccc8161246a565b82525050565b6000606082019050612ce76000830185612644565b8181036020830152612cf881612ca0565b9050612d076040830184612cc3565b9392505050565b7f4e487b7100000000000000000000000000000000000000000000000000000000600052602260045260246000fd5b60006002820490506001821680612d5557607f821691505b60208210811415612d6957612d68612d0e565b5b50919050565b7f4f6e6c7920457363726f7720616c6c6f77656400000000000000000000000000600082015250565b6000612da5601383612940565b9150612db082612d6f565b602082019050919050565b60006020820190508181036000830152612dd481612d98565b9050919050565b7f5365727669636520616c72656164792070726f76696465640000000000000000600082015250565b6000612e11601883612940565b9150612e1c82612ddb565b602082019050919050565b60006020820190508181036000830152612e4081612e04565b9050919050565b7f524546554e444544000000000000000000000000000000000000000000000000600082015250565b6000612e7d600883612940565b9150612e8882612e47565b602082019050919050565b6000606082019050612ea86000830185612644565b8181036020830152612eb981612e70565b9050612ec86040830184612cc3565b9392505050565b7f507572706f73652063616e6e6f7420626520656d707479000000000000000000600082015250565b6000612f05601783612940565b9150612f1082612ecf565b602082019050919050565b60006020820190508181036000830152612f3481612ef8565b9050919050565b7f4974656d2063616e6e6f74206265207a65726f20657468657273000000000000600082015250565b6000612f71601a83612940565b9150612f7c82612f3b565b602082019050919050565b60006020820190508181036000830152612fa081612f64565b9050919050565b7f4954454d20435245415445440000000000000000000000000000000000000000600082015250565b6000612fdd600c83612940565b9150612fe882612fa7565b602082019050919050565b60006060820190506130086000830185612644565b818103602083015261301981612fd0565b90506130286040830184612cc3565b9392505050565b7f4e487b7100000000000000000000000000000000000000000000000000000000600052604160045260246000fd5b7f4e487b7100000000000000000000000000000000000000000000000000000000600052603260045260246000fd5b7f53657276696365206e6f74206177617264656420746f20796f75000000000000600082015250565b60006130c3601a83612940565b91506130ce8261308d565b602082019050919050565b600060208201905081810360008301526130f2816130b6565b9050919050565b7f5365727669636520616c726561647920636f6e6669726d656400000000000000600082015250565b600061312f601983612940565b915061313a826130f9565b602082019050919050565b6000602082019050818103600083015261315e81613122565b9050919050565b7f44454c495645525920494e544941544544000000000000000000000000000000600082015250565b600061319b601183612940565b91506131a682613165565b602082019050919050565b60006060820190506131c66000830185612644565b81810360208301526131d78161318e565b90506131e66040830184612cc3565b9392505050565b7f4974656d206e6f7420617661696c61626c650000000000000000000000000000600082015250565b6000613223601283612940565b915061322e826131ed565b602082019050919050565b6000602082019050818103600083015261325281613216565b9050919050565b7f50726f7669646572206e6f74206f6e20746865206c6973740000000000000000600082015250565b600061328f601883612940565b915061329a82613259565b602082019050919050565b600060208201905081810360008301526132be81613282565b9050919050565b7f415050524f564544000000000000000000000000000000000000000000000000600082015250565b60006132fb600883612940565b9150613306826132c5565b602082019050919050565b60006060820190506133266000830185612644565b8181036020830152613337816132ee565b90506133466040830184612cc3565b9392505050565b7f4f776e6572206e6f7420616c6c6f776564000000000000000000000000000000600082015250565b6000613383601183612940565b915061338e8261334d565b602082019050919050565b600060208201905081810360008301526133b281613376565b9050919050565b7f5245515545535445440000000000000000000000000000000000000000000000600082015250565b60006133ef600983612940565b91506133fa826133b9565b602082019050919050565b600060608201905061341a6000830185612644565b818103602083015261342b816133e2565b905061343a6040830184612cc3565b9392505050565b7f5a65726f207769746864726177616c206e6f7420616c6c6f7765640000000000600082015250565b6000613477601b83612940565b915061348282613441565b602082019050919050565b600060208201905081810360008301526134a68161346a565b9050919050565b7f5749544844524157454400000000000000000000000000000000000000000000600082015250565b60006134e3600a83612940565b91506134ee826134ad565b602082019050919050565b600060608201905061350e6000830185612644565b818103602083015261351f816134d6565b905061352e6040830184612cc3565b9392505050565b600081905092915050565b50565b6000613550600083613535565b915061355b82613540565b600082019050919050565b600061357182613543565b9150819050919050565b7f5061796d656e74206661696c6564000000000000000000000000000000000000600082015250565b60006135b1600e83612940565b91506135bc8261357b565b602082019050919050565b600060208201905081810360008301526135e0816135a4565b905091905056fea2646970667358221220e5e986fc0ba3bdcdecb3bba0e60d001c72d5568606e76f92455c64c5f867731664736f6c634300080a0033",
  "immutableReferences": {},
  "source": "// SPDX-License-Identifier: UNLICENSED\npragma solidity ^0.8.10;\n\n// import \"@openzeppelin/contracts/security/ReentrancyGuard.sol\";\n\ncontract Escrow {\n    address public escAcc;\n    uint256 public escBal; //deposit\n    uint256 public escAvailBal;\n    uint256 public escFee; // gas fee\n    uint256 public totalItems = 0;\n    uint256 public totalConfirmed = 0;\n    uint256 public totalDisputed = 0;\n\n    mapping(uint256 => ItemStruct) private items;\n    mapping(address => ItemStruct[]) private itemsOf;\n    mapping(address => mapping(uint256 => bool)) public requested;\n    mapping(uint256 => address) public ownerOf;\n    mapping(uint256 => Available) public isAvailable;\n\n    enum Status {\n        OPEN,\n        PENDING,\n        DELIVERY,\n        CONFIRMED,\n        DISPUTTED,\n        REFUNDED,\n        WITHDRAWED\n    }\n\n    enum Available { NO, YES }\n\n    struct ItemStruct {\n        uint256 itemId;\n        string purpose;\n        uint256 amount;\n        uint256 timestamp;\n        address owner;\n        address provider;\n        Status status;\n        bool provided;\n        bool confirmed;\n    }\n\n    event Action (\n        uint256 itemId,\n        string actionType,\n        Status status,\n        address indexed executor\n    );\n\n    constructor(uint256 _escFee) {\n        escAcc = msg.sender;\n        escBal = 0;\n        escAvailBal = 0;\n        escFee = _escFee;\n    }\n\n    function createItem(string calldata purpose) payable external returns (bool) {\n        require(bytes(purpose).length > 0, \"Purpose cannot be empty\");\n        require(msg.value > 0 ether, \"Item cannot be zero ethers\");\n\n        uint256 itemId = totalItems++;\n        ItemStruct storage item = items[itemId];\n\n        item.itemId = itemId;\n        item.purpose = purpose;\n        item.amount = msg.value;\n        item.timestamp = block.timestamp;\n        item.owner = msg.sender;\n        item.status = Status.OPEN;\n\n        itemsOf[msg.sender].push(item);\n        ownerOf[itemId] = msg.sender;\n        isAvailable[itemId] = Available.YES;\n        escBal += msg.value;\n\n        emit Action (\n            itemId,\n            \"ITEM CREATED\",\n            Status.OPEN,\n            msg.sender\n        );\n        return true;\n    }\n\n    function getItems()\n        external\n        view\n        returns (ItemStruct[] memory props) {\n        props = new ItemStruct[](totalItems);\n\n        for (uint256 i = 0; i < totalItems; i++) {\n            props[i] = items[i];\n        }\n    }\n\n    function getItem(uint256 itemId)\n        external\n        view\n        returns (ItemStruct memory) {\n        return items[itemId];\n    }\n\n    function myItems()\n        external\n        view\n        returns (ItemStruct[] memory) {\n        return itemsOf[msg.sender];\n    }\n\n    function requestItem(uint256 itemId) external returns (bool) {\n        require(msg.sender != ownerOf[itemId], \"Owner not allowed\");\n        require(isAvailable[itemId] == Available.YES, \"Item not available\");\n\n        requested[msg.sender][itemId] = true;\n\n        emit Action (\n            itemId,\n            \"REQUESTED\",\n            Status.OPEN,\n            msg.sender\n        );\n\n        return true;\n    }\n\n    function approveRequest(\n        uint256 itemId,\n        address provider\n    ) external returns (bool) {\n        require(msg.sender == ownerOf[itemId], \"Only owner allowed\");\n        require(isAvailable[itemId] == Available.YES, \"Item not available\");\n        require(requested[provider][itemId], \"Provider not on the list\");\n\n        isAvailable[itemId] == Available.NO;\n        items[itemId].status = Status.PENDING;\n        items[itemId].provider = provider;\n\n        emit Action (\n            itemId,\n            \"APPROVED\",\n            Status.PENDING,\n            msg.sender\n        );\n\n        return true;\n    }\n\n    function performDelievery(uint256 itemId) external returns (bool) {\n        require(msg.sender == items[itemId].provider, \"Service not awarded to you\");\n        require(!items[itemId].provided, \"Service already provided\");\n        require(!items[itemId].confirmed, \"Service already confirmed\");\n\n        items[itemId].provided = true;\n        items[itemId].status = Status.DELIVERY;\n\n        emit Action (\n            itemId,\n            \"DELIVERY INTIATED\",\n            Status.DELIVERY,\n            msg.sender\n        );\n\n        return true;\n    }\n\n    function confirmDelivery(\n        uint256 itemId,\n        bool provided\n    ) external returns (bool) {\n        require(msg.sender == ownerOf[itemId], \"Only owner allowed\");\n        require(items[itemId].provided, \"Service not provided\");\n        require(items[itemId].status != Status.REFUNDED, \"Already refunded, create a new Item\");\n\n        if(provided) {\n            uint256 fee = (items[itemId].amount * escFee) / 100;\n            payTo(items[itemId].provider, (items[itemId].amount - fee));\n            escBal -= items[itemId].amount;\n            escAvailBal += fee;\n\n            items[itemId].confirmed = true;\n            items[itemId].status = Status.CONFIRMED;\n            totalConfirmed++;\n        }else {\n           items[itemId].status = Status.DISPUTTED; \n        }\n\n        emit Action (\n            itemId,\n            \"DISPUTTED\",\n            Status.DISPUTTED,\n            msg.sender\n        );\n\n        return true;\n    }\n\n    function refundItem(uint256 itemId) external returns (bool) {\n        require(msg.sender == escAcc, \"Only Escrow allowed\");\n        require(!items[itemId].confirmed, \"Service already provided\");\n\n        payTo(items[itemId].owner, items[itemId].amount);\n        escBal -= items[itemId].amount;\n        items[itemId].status = Status.REFUNDED;\n        totalDisputed++;\n\n        emit Action (\n            itemId,\n            \"REFUNDED\",\n            Status.REFUNDED,\n            msg.sender\n        );\n\n        return true;\n    }\n\n    function withdrawFund(\n        address to,\n        uint256 amount\n    ) external returns (bool) {\n        require(msg.sender == escAcc, \"Only Escrow allowed\");\n        require(amount > 0 ether && amount <= escAvailBal, \"Zero withdrawal not allowed\");\n\n        payTo(to, amount);\n        escAvailBal -= amount;\n\n        emit Action (\n            block.timestamp,\n            \"WITHDRAWED\",\n            Status.WITHDRAWED,\n            msg.sender\n        );\n\n        return true;\n    }\n\n    function payTo(\n        address to, \n        uint256 amount\n    ) internal returns (bool) {\n        (bool success,) = payable(to).call{value: amount}(\"\");\n        require(success, \"Payment failed\");\n        return true;\n    }\n}",
  "sourcePath": "/Users/tamarayustian/src/smart-contract/api/contracts/Escrow.sol",
  "compiler": {
    "name": "solc",
    "version": "0.8.10+commit.fc410830.Emscripten.clang"
  },
  "schemaVersion": "3.4.10",
  "updatedAt": "2022-11-01T11:06:34.734Z",
  "networkType": "ethereum",
  "devdoc": {
    "kind": "dev",
    "methods": {},
    "version": 1
  },
  "userdoc": {
    "kind": "user",
    "methods": {},
    "version": 1
  }
}