{
  "contractName": "Payment",
  "abi": [
    {
      "anonymous": false,
      "inputs": [
        {
          "indexed": false,
          "internalType": "address",
          "name": "from",
          "type": "address"
        },
        {
          "indexed": false,
          "internalType": "address",
          "name": "to",
          "type": "address"
        },
        {
          "indexed": false,
          "internalType": "uint256",
          "name": "amount",
          "type": "uint256"
        },
        {
          "indexed": false,
          "internalType": "uint256",
          "name": "planId",
          "type": "uint256"
        },
        {
          "indexed": false,
          "internalType": "uint256",
          "name": "date",
          "type": "uint256"
        }
      ],
      "name": "PaymentSent",
      "type": "event"
    },
    {
      "anonymous": false,
      "inputs": [
        {
          "indexed": false,
          "internalType": "address",
          "name": "merchant",
          "type": "address"
        },
        {
          "indexed": false,
          "internalType": "uint256",
          "name": "planId",
          "type": "uint256"
        },
        {
          "indexed": false,
          "internalType": "uint256",
          "name": "date",
          "type": "uint256"
        }
      ],
      "name": "PlanCreated",
      "type": "event"
    },
    {
      "anonymous": false,
      "inputs": [
        {
          "indexed": false,
          "internalType": "address",
          "name": "subscriber",
          "type": "address"
        },
        {
          "indexed": false,
          "internalType": "uint256",
          "name": "planId",
          "type": "uint256"
        },
        {
          "indexed": false,
          "internalType": "uint256",
          "name": "date",
          "type": "uint256"
        }
      ],
      "name": "SubscriptionCancelled",
      "type": "event"
    },
    {
      "anonymous": false,
      "inputs": [
        {
          "indexed": false,
          "internalType": "address",
          "name": "subscriber",
          "type": "address"
        },
        {
          "indexed": false,
          "internalType": "uint256",
          "name": "planId",
          "type": "uint256"
        },
        {
          "indexed": false,
          "internalType": "uint256",
          "name": "date",
          "type": "uint256"
        }
      ],
      "name": "SubscriptionCreated",
      "type": "event"
    },
    {
      "inputs": [],
      "name": "nextPlanId",
      "outputs": [
        {
          "internalType": "uint256",
          "name": "",
          "type": "uint256"
        }
      ],
      "stateMutability": "view",
      "type": "function"
    },
    {
      "inputs": [
        {
          "internalType": "uint256",
          "name": "",
          "type": "uint256"
        }
      ],
      "name": "plans",
      "outputs": [
        {
          "internalType": "address",
          "name": "merchant",
          "type": "address"
        },
        {
          "internalType": "address",
          "name": "token",
          "type": "address"
        },
        {
          "internalType": "uint256",
          "name": "amount",
          "type": "uint256"
        },
        {
          "internalType": "uint256",
          "name": "frequency",
          "type": "uint256"
        }
      ],
      "stateMutability": "view",
      "type": "function"
    },
    {
      "inputs": [
        {
          "internalType": "address",
          "name": "",
          "type": "address"
        },
        {
          "internalType": "uint256",
          "name": "",
          "type": "uint256"
        }
      ],
      "name": "subscriptions",
      "outputs": [
        {
          "internalType": "address",
          "name": "subscriber",
          "type": "address"
        },
        {
          "internalType": "uint256",
          "name": "start",
          "type": "uint256"
        },
        {
          "internalType": "uint256",
          "name": "nextPayment",
          "type": "uint256"
        }
      ],
      "stateMutability": "view",
      "type": "function"
    },
    {
      "inputs": [
        {
          "internalType": "address",
          "name": "token",
          "type": "address"
        },
        {
          "internalType": "uint256",
          "name": "amount",
          "type": "uint256"
        },
        {
          "internalType": "uint256",
          "name": "frequency",
          "type": "uint256"
        }
      ],
      "name": "createPlan",
      "outputs": [],
      "stateMutability": "nonpayable",
      "type": "function"
    },
    {
      "inputs": [
        {
          "internalType": "uint256",
          "name": "planId",
          "type": "uint256"
        }
      ],
      "name": "subscribe",
      "outputs": [],
      "stateMutability": "nonpayable",
      "type": "function"
    },
    {
      "inputs": [
        {
          "internalType": "uint256",
          "name": "planId",
          "type": "uint256"
        }
      ],
      "name": "cancel",
      "outputs": [],
      "stateMutability": "nonpayable",
      "type": "function"
    },
    {
      "inputs": [
        {
          "internalType": "address",
          "name": "subscriber",
          "type": "address"
        },
        {
          "internalType": "uint256",
          "name": "planId",
          "type": "uint256"
        }
      ],
      "name": "pay",
      "outputs": [],
      "stateMutability": "nonpayable",
      "type": "function"
    }
  ],
  "bytecode": "0x608060405234801561001057600080fd5b5061126a806100206000396000f3fe608060405234801561001057600080fd5b506004361061007d5760003560e01c8063623da3d11161005b578063623da3d1146100d8578063b16206161461010a578063c40768761461013d578063e95fc90f146101595761007d565b80630f574ba71461008257806340e58ee51461009e5780635f8d26b2146100ba575b600080fd5b61009c60048036038101906100979190610c0b565b610175565b005b6100b860048036038101906100b39190610c0b565b610499565b005b6100c261064a565b6040516100cf9190610c47565b60405180910390f35b6100f260048036038101906100ed9190610cc0565b610650565b60405161010193929190610d0f565b60405180910390f35b610124600480360381019061011f9190610c0b565b6106a7565b6040516101349493929190610d46565b60405180910390f35b61015760048036038101906101529190610cc0565b610717565b005b610173600480360381019061016e9190610d8b565b6109b8565b005b60006001600083815260200190815260200160002060010160009054906101000a900473ffffffffffffffffffffffffffffffffffffffff1690506000600160008481526020019081526020016000209050600073ffffffffffffffffffffffffffffffffffffffff168160000160009054906101000a900473ffffffffffffffffffffffffffffffffffffffff1673ffffffffffffffffffffffffffffffffffffffff16141561025b576040517f08c379a000000000000000000000000000000000000000000000000000000000815260040161025290610e3b565b60405180910390fd5b8173ffffffffffffffffffffffffffffffffffffffff166323b872dd338360000160009054906101000a900473ffffffffffffffffffffffffffffffffffffffff1684600201546040518463ffffffff1660e01b81526004016102c093929190610e5b565b6020604051808303816000875af11580156102df573d6000803e3d6000fd5b505050506040513d601f19601f820116820180604052508101906103039190610eca565b507f577462848cc2ec95e5ef95bf0b154b97340221cd1002ea0511a3877a7f20fb8c338260000160009054906101000a900473ffffffffffffffffffffffffffffffffffffffff1683600201548642604051610363959493929190610ef7565b60405180910390a160405180606001604052803373ffffffffffffffffffffffffffffffffffffffff1681526020014281526020018260030154426103a89190610f79565b815250600260003373ffffffffffffffffffffffffffffffffffffffff1673ffffffffffffffffffffffffffffffffffffffff168152602001908152602001600020600085815260200190815260200160002060008201518160000160006101000a81548173ffffffffffffffffffffffffffffffffffffffff021916908373ffffffffffffffffffffffffffffffffffffffff16021790555060208201518160010155604082015181600201559050507feec977e786e7248a658b0474ccf8f57f37ead019014ec4d5ba1542ddabeff1b433844260405161048c93929190610d0f565b60405180910390a1505050565b6000600260003373ffffffffffffffffffffffffffffffffffffffff1673ffffffffffffffffffffffffffffffffffffffff16815260200190815260200160002060008381526020019081526020016000209050600073ffffffffffffffffffffffffffffffffffffffff168160000160009054906101000a900473ffffffffffffffffffffffffffffffffffffffff1673ffffffffffffffffffffffffffffffffffffffff161415610581576040517f08c379a00000000000000000000000000000000000000000000000000000000081526004016105789061101b565b60405180910390fd5b600260003373ffffffffffffffffffffffffffffffffffffffff1673ffffffffffffffffffffffffffffffffffffffff1681526020019081526020016000206000838152602001908152602001600020600080820160006101000a81549073ffffffffffffffffffffffffffffffffffffffff02191690556001820160009055600282016000905550507fde4047f3bd050ef9b8743c61b37fd72275056d1ccb33d1eb3f22c80cb14df28933834260405161063e93929190610d0f565b60405180910390a15050565b60005481565b6002602052816000526040600020602052806000526040600020600091509150508060000160009054906101000a900473ffffffffffffffffffffffffffffffffffffffff16908060010154908060020154905083565b60016020528060005260406000206000915090508060000160009054906101000a900473ffffffffffffffffffffffffffffffffffffffff16908060010160009054906101000a900473ffffffffffffffffffffffffffffffffffffffff16908060020154908060030154905084565b6000600260008473ffffffffffffffffffffffffffffffffffffffff1673ffffffffffffffffffffffffffffffffffffffff16815260200190815260200160002060008381526020019081526020016000209050600060016000848152602001908152602001600020905060008160010160009054906101000a900473ffffffffffffffffffffffffffffffffffffffff169050600073ffffffffffffffffffffffffffffffffffffffff168360000160009054906101000a900473ffffffffffffffffffffffffffffffffffffffff1673ffffffffffffffffffffffffffffffffffffffff16141561083f576040517f08c379a00000000000000000000000000000000000000000000000000000000081526004016108369061101b565b60405180910390fd5b82600201544211610885576040517f08c379a000000000000000000000000000000000000000000000000000000000815260040161087c90611087565b60405180910390fd5b8073ffffffffffffffffffffffffffffffffffffffff166323b872dd868460000160009054906101000a900473ffffffffffffffffffffffffffffffffffffffff1685600201546040518463ffffffff1660e01b81526004016108ea93929190610e5b565b6020604051808303816000875af1158015610909573d6000803e3d6000fd5b505050506040513d601f19601f8201168201806040525081019061092d9190610eca565b507f577462848cc2ec95e5ef95bf0b154b97340221cd1002ea0511a3877a7f20fb8c858360000160009054906101000a900473ffffffffffffffffffffffffffffffffffffffff168460020154874260405161098d959493929190610ef7565b60405180910390a1816003015483600201546109a99190610f79565b83600201819055505050505050565b600073ffffffffffffffffffffffffffffffffffffffff168373ffffffffffffffffffffffffffffffffffffffff161415610a28576040517f08c379a0000000000000000000000000000000000000000000000000000000008152600401610a1f906110f3565b60405180910390fd5b60008211610a6b576040517f08c379a0000000000000000000000000000000000000000000000000000000008152600401610a629061115f565b60405180910390fd5b60008111610aae576040517f08c379a0000000000000000000000000000000000000000000000000000000008152600401610aa5906111cb565b60405180910390fd5b60405180608001604052803373ffffffffffffffffffffffffffffffffffffffff1681526020018473ffffffffffffffffffffffffffffffffffffffff16815260200183815260200182815250600160008054815260200190815260200160002060008201518160000160006101000a81548173ffffffffffffffffffffffffffffffffffffffff021916908373ffffffffffffffffffffffffffffffffffffffff16021790555060208201518160010160006101000a81548173ffffffffffffffffffffffffffffffffffffffff021916908373ffffffffffffffffffffffffffffffffffffffff1602179055506040820151816002015560608201518160030155905050600080815480929190610bc6906111eb565b9190505550505050565b600080fd5b6000819050919050565b610be881610bd5565b8114610bf357600080fd5b50565b600081359050610c0581610bdf565b92915050565b600060208284031215610c2157610c20610bd0565b5b6000610c2f84828501610bf6565b91505092915050565b610c4181610bd5565b82525050565b6000602082019050610c5c6000830184610c38565b92915050565b600073ffffffffffffffffffffffffffffffffffffffff82169050919050565b6000610c8d82610c62565b9050919050565b610c9d81610c82565b8114610ca857600080fd5b50565b600081359050610cba81610c94565b92915050565b60008060408385031215610cd757610cd6610bd0565b5b6000610ce585828601610cab565b9250506020610cf685828601610bf6565b9150509250929050565b610d0981610c82565b82525050565b6000606082019050610d246000830186610d00565b610d316020830185610c38565b610d3e6040830184610c38565b949350505050565b6000608082019050610d5b6000830187610d00565b610d686020830186610d00565b610d756040830185610c38565b610d826060830184610c38565b95945050505050565b600080600060608486031215610da457610da3610bd0565b5b6000610db286828701610cab565b9350506020610dc386828701610bf6565b9250506040610dd486828701610bf6565b9150509250925092565b600082825260208201905092915050565b7f7468697320706c616e20646f6573206e6f742065786973740000000000000000600082015250565b6000610e25601883610dde565b9150610e3082610def565b602082019050919050565b60006020820190508181036000830152610e5481610e18565b9050919050565b6000606082019050610e706000830186610d00565b610e7d6020830185610d00565b610e8a6040830184610c38565b949350505050565b60008115159050919050565b610ea781610e92565b8114610eb257600080fd5b50565b600081519050610ec481610e9e565b92915050565b600060208284031215610ee057610edf610bd0565b5b6000610eee84828501610eb5565b91505092915050565b600060a082019050610f0c6000830188610d00565b610f196020830187610d00565b610f266040830186610c38565b610f336060830185610c38565b610f406080830184610c38565b9695505050505050565b7f4e487b7100000000000000000000000000000000000000000000000000000000600052601160045260246000fd5b6000610f8482610bd5565b9150610f8f83610bd5565b9250827fffffffffffffffffffffffffffffffffffffffffffffffffffffffffffffffff03821115610fc457610fc3610f4a565b5b828201905092915050565b7f7468697320737562736372697074696f6e20646f6573206e6f74206578697374600082015250565b6000611005602083610dde565b915061101082610fcf565b602082019050919050565b6000602082019050818103600083015261103481610ff8565b9050919050565b7f6e6f742064756520796574000000000000000000000000000000000000000000600082015250565b6000611071600b83610dde565b915061107c8261103b565b602082019050919050565b600060208201905081810360008301526110a081611064565b9050919050565b7f616464726573732063616e6e6f74206265206e756c6c20616464726573730000600082015250565b60006110dd601e83610dde565b91506110e8826110a7565b602082019050919050565b6000602082019050818103600083015261110c816110d0565b9050919050565b7f616d6f756e74206e6565647320746f206265203e203000000000000000000000600082015250565b6000611149601683610dde565b915061115482611113565b602082019050919050565b600060208201905081810360008301526111788161113c565b9050919050565b7f6672657175656e6379206e6565647320746f206265203e203000000000000000600082015250565b60006111b5601983610dde565b91506111c08261117f565b602082019050919050565b600060208201905081810360008301526111e4816111a8565b9050919050565b60006111f682610bd5565b91507fffffffffffffffffffffffffffffffffffffffffffffffffffffffffffffffff82141561122957611228610f4a565b5b60018201905091905056fea2646970667358221220ae9b1b3fffe5c9818138fdd6e1222bc1a53b70fcfeaa94a20b7d2c0324536b3964736f6c634300080a0033",
  "immutableReferences": {},
  "source": "// SPDX-License-Identifier: UNLICENSED\npragma solidity ^0.8.10;\n\nimport '@openzeppelin/contracts/token/ERC20/IERC20.sol';\n\ncontract Payment {\n  uint public nextPlanId;\n  struct Plan {\n    address merchant;\n    address token;\n    uint amount;\n    uint frequency;\n  }\n  struct Subscription {\n    address subscriber;\n    uint start;\n    uint nextPayment;\n  }\n  mapping(uint => Plan) public plans;\n  mapping(address => mapping(uint => Subscription)) public subscriptions;\n\n  event PlanCreated(\n    address merchant,\n    uint planId,\n    uint date\n  );\n  event SubscriptionCreated(\n    address subscriber,\n    uint planId,\n    uint date\n  );\n  event SubscriptionCancelled(\n    address subscriber,\n    uint planId,\n    uint date\n  );\n  event PaymentSent(\n    address from,\n    address to,\n    uint amount,\n    uint planId,\n    uint date\n  );\n\n  function createPlan(address token, uint amount, uint frequency) external {\n    require(token != address(0), 'address cannot be null address');\n    require(amount > 0, 'amount needs to be > 0');\n    require(frequency > 0, 'frequency needs to be > 0');\n    plans[nextPlanId] = Plan(\n      msg.sender, \n      token,\n      amount, \n      frequency\n    );\n    nextPlanId++;\n  }\n\n  function subscribe(uint planId) external {\n    IERC20 token = IERC20(plans[planId].token);\n    Plan storage plan = plans[planId];\n    require(plan.merchant != address(0), 'this plan does not exist');\n\n    token.transferFrom(msg.sender, plan.merchant, plan.amount);  \n    emit PaymentSent(\n      msg.sender, \n      plan.merchant, \n      plan.amount, \n      planId, \n      block.timestamp\n    );\n\n    subscriptions[msg.sender][planId] = Subscription(\n      msg.sender, \n      block.timestamp, \n      block.timestamp + plan.frequency\n    );\n    emit SubscriptionCreated(msg.sender, planId, block.timestamp);\n  }\n\n  function cancel(uint planId) external {\n    Subscription storage subscription = subscriptions[msg.sender][planId];\n    require(\n      subscription.subscriber != address(0), \n      'this subscription does not exist'\n    );\n    delete subscriptions[msg.sender][planId]; \n    emit SubscriptionCancelled(msg.sender, planId, block.timestamp);\n  }\n\n  function pay(address subscriber, uint planId) external {\n    Subscription storage subscription = subscriptions[subscriber][planId];\n    Plan storage plan = plans[planId];\n    IERC20 token = IERC20(plan.token);\n    require(\n      subscription.subscriber != address(0), \n      'this subscription does not exist'\n    );\n    require(\n      block.timestamp > subscription.nextPayment,\n      'not due yet'\n    );\n\n    token.transferFrom(subscriber, plan.merchant, plan.amount);  \n    emit PaymentSent(\n      subscriber,\n      plan.merchant, \n      plan.amount, \n      planId, \n      block.timestamp\n    );\n    subscription.nextPayment = subscription.nextPayment + plan.frequency;\n  }\n}",
  "sourcePath": "/Users/tamarayustian/src/smart-contract/api/contracts/Payment.sol",
  "compiler": {
    "name": "solc",
    "version": "0.8.10+commit.fc410830.Emscripten.clang"
  },
  "schemaVersion": "3.4.10",
  "updatedAt": "2022-11-03T09:19:24.382Z",
  "devdoc": {
    "kind": "dev",
    "methods": {},
    "version": 1
  },
  "userdoc": {
    "kind": "user",
    "methods": {},
    "version": 1
  }
}